:020000040800F2
:10000000000001204D1A0008111100081D11000800
:10001000251100082D11000835110008000000000E
:10002000000000000000000000000000B50500080E
:100030003D11000800000000BD060008050700088B
:10004000951A0008951A0008951A0008951A0008D4
:10005000951A0008951A0008951A0008951A0008C4
:10006000951A0008951A0008951A0008951A0008B4
:10007000951A0008951A0008951A0008951A0008A4
:10008000951A0008951A0008951A0008951A000894
:10009000951A0008951A0008951A0008951A000884
:1000A000951A0008F11B0008951A0008951A000817
:1000B000151C0008951A0008951A0008951A0008E2
:1000C000951A0008951A0008951A0008951A000854
:1000D000951A0008351D0008B11D00082D1E0008E6
:1000E000951A0008951A0008951A0008951A000834
:1000F000951A0008951A0008951A0008951A000824
:10010000951A0008951A0008951A0008951A000813
:10011000951A0008951A0008951A0008951A000803
:10012000951A0008951A0008951A0008951A0008F3
:1001300000000000000000000000000000000000BF
:1001400000000000000000000000000000000000AF
:10015000000000000000000000000000000000009F
:10016000000000000000000000000000000000008F
:10017000000000000000000000000000000000007F
:10018000000000000000000000000000000000006F
:10019000000000000000000000000000000000005F
:1001A000000000000000000000000000000000004F
:1001B000000000000000000000000000000000003F
:1001C000000000000000000000000000000000002F
:1001D000000000000000000000000000000000001F
:0401E0005FF8E0F1F3
:1001E400044B05481B1A062B02D9044B03B11847CC
:1001F400704700BF5F0800205C080020000000007A
:1002040005490648091A891001EBD171491002D039
:10021400034B03B1184770475C0800205C080020BA
:100224000000000010B5064C237843B9FFF7D8FF4F
:10023400044B13B10448AFF300800123237010BDB5
:100244005C08002000000000E401000808B5084B29
:100254001BB108490848AFF300800848036813B984
:10026400BDE80840CCE7064B002BF9D09847F7E7E8
:100274000000000060080020E40100085C08002081
:1002840000000000844641EA000313F0030349D14F
:10029400403A23D30B6803604B6843608B688360E8
:1002A400CB68C3600B6903614B6943618B698361EC
:1002B400CB69C3610B6A03624B6A43628B6A8362D4
:1002C400CB6AC3620B6B03634B6B43638B6B8363BC
:1002D400CB6BC36340304031403ADBD230320BD376
:1002E4000B6803604B6843608B688360CB68C360B2
:1002F40010301031103AF3D20C3205D351F8043BCC
:1003040040F8043B043AF9D2043208D0D2071CBFA7
:1003140011F8013B00F8013B01D30B8803806046D0
:10032400704700BF082A13D38B07B1D010F0030322
:10033400AED0C3F10403D21ADB071CBF11F8013B92
:1003440000F8013BA4D331F8023B20F8023B9FE7BD
:10035400043AD9D3013A11F8013B00F8013BF9D230
:100364000B7803704B7843708B78837060467047CA
:1003740080B588B000AF786000237B6100F0C2FBD9
:100384003E4B1B68002B04D100F0BAF83B4B012212
:100394001A607B68002B0ED008231A467B6813442E
:1003A4007B607B6803F00703002B04D07B6823F099
:1003B400070308337B607B68002B57D07B6844F2CB
:1003C400F732934252D82E4BBB612D4B1B68FB6115
:1003D40004E0FB69BB61FB691B68FB61FB695A684C
:1003E4007B689A4203D2FB691B68002BF1D1FB693D
:1003F400244A93423AD0BB691B68082213447B61A8
:10040400FB691A68BB691A60FB695A687B68D31A6E
:1004140008225200934222D9FA697B681344FB6094
:10042400FB695A687B68D21AFB685A60FB697A6870
:100434005A60FB685B68BB60114B3B6102E03B693F
:100444001B683B613B691B685A68BB689A42F6D3D8
:100454003B691A68FB681A603B69FA681A600A4BC0
:100464001A68FB695B68D31A074A136000F058FBEB
:100474007B6918462037BD4680BD00BF884C0020EC
:10048400784C0020804C00200000002080B586B00D
:1004940000AF78607B683B617B68002B27D0082322
:1004A4005B423A6913443B613B69FB6000F02AFB01
:1004B400FB685B68BB60104B7B6102E07B691B6877
:1004C4007B617B691B685A68BB689A42F6D37B6977
:1004D4001A68FB681A607B69FA681A60FB685A68D4
:1004E400064B1B681344054A136000F019FB00BF58
:1004F4001837BD4680BD00BF784C002000000020A6
:1005040080B483B000AF0F4B23F007037B600E4A27
:100514007B6813600C4B00225A600C4B44F2F83297
:100524005A600A4B00221A607B683B603B6844F2C5
:10053400F8325A603B68054A1A6000BF0C37BD4662
:1005440080BC704780080020784C0020804C00203C
:1005540080B485B000AFF860B9607A60FB68043B92
:10056400FB60FB684FF080721A60FB68043BFB6021
:10057400BA68FB681A60FB68043BFB60084AFB68C6
:100584001A60FB68143BFB607A68FB681A60FB68BE
:10059400203BFB60FB6818461437BD4680BC70479F
:1005A400A905000880B500AF00F078F8FEE700BFA9
:1005B400074B19680868B0E8F00F80F30988BFF3A7
:1005C4006F8F4FF0000080F311884EF00D0E7047CE
:1005D4008C4C002000BF00BF06480068006880F310
:1005E400088862B661B6BFF34F8FBFF36F8F00DF29
:1005F40000BF00BF08ED00E080B500AF0B4A0B4B15
:100604001B6843F47F031360084A084B1B6843F0DC
:100614007F43136000F088F8054B00221A60FFF74F
:10062400DBFFFFF7BFFF0023184680BD20ED00E08D
:100634000400002080B400AF054B4FF080521A60D4
:10064400BFF34F8FBFF36F8F00BFBD4680BC7047B1
:1006540004ED00E080B500AF00F020F8054B1B6806
:100664000133044A1360BFF34F8FBFF36F8F00BF92
:1006740080BD00BF0400002080B500AF064B1B689E
:10068400013B054A1360044B1B68002B02D1002078
:1006940000F00EF800BF80BD04000020EFF31180CD
:1006A4004FF0BF0181F3118870470023184600BF43
:1006B40080F31188704700BFEFF30980BFF36F8F99
:1006C4000D4B1A6820E9F00F10602DE908404FF037
:1006D400BF0080F3118800F05DFB4FF0000080F351
:1006E4001188BDE8084019680868B0E8F00F80F385
:1006F4000988BFF36F8F70478C4C002000BF00BF88
:1007040080B500AFFFF7CAFF00F096FA0346002B4E
:1007140003D0044B4FF080521A600020FFF7C8FF4B
:1007240000BF80BD04ED00E080B400AF044B054A77
:100734001A60054B07221A6000BFBD4680BC704793
:1007440014E000E03F19010010E000E080B483B041
:1007540000AF78607B6803F108027B685A607B68AD
:100764004FF0FF329A607B6803F108027B68DA601D
:100774007B6803F108027B681A617B6800221A60B7
:1007840000BF0C37BD4680BC704700BF80B483B047
:1007940000AF78607B6800221A6100BF0C37BD4649
:1007A40080BC704780B485B000AF786039607B68E6
:1007B4005B68FB603B68FA685A60FB689A683B6850
:1007C4009A60FB689B683A685A60FB683A689A606A
:1007D4003B687A681A617B681B685A1C7B681A60DC
:1007E40000BF1437BD4680BC704700BF80B485B0DD
:1007F40000AF786039603B681B68BB60BB68B3F1CD
:10080400FF3F03D17B681B69FB600CE07B68083306
:10081400FB6002E0FB685B68FB60FB685B681A686E
:10082400BB689A42F6D9FB685A683B685A603B68D1
:100834005B683A689A603B68FA689A60FB683A6851
:100844005A603B687A681A617B681B685A1C7B682B
:100854001A6000BF1437BD4680BC704780B485B0B1
:1008640000AF78607B681B69FB607B685B687A68B3
:1008740092689A607B689B687A6852685A60FB68E1
:100884005A687B689A4203D17B689A68FB685A600D
:100894007B6800221A61FB681B685A1EFB681A6099
:1008A400FB681B6818461437BD4680BC704700BF00
:1008B40080B58AB002AFF860B9603B601346FB8034
:1008C400FB88396B184600F0C1FBB861BB69002B8B
:1008D40065D0BB691A6BFB8803F18043013B9B0025
:1008E40013447B617B6923F007037B61FB880093DE
:1008F4007B6BBA6AB968B86900F0A2FA3A68F96819
:100904007869FFF725FE0246BB691A60FB6A002B73
:1009140002D0FB6ABA691A60FFF79CFE2B4B1B6876
:1009240001332A4A13602A4B1B68002B09D1284A39
:10093400BB691360254B1B68012B0FD100F0D4FA5F
:100944000CE0244B1B68002B08D1214B1B68DA6A8E
:10095400BB6A9A4202D81E4ABB6913601E4B1B68CD
:1009640001331D4A1360BB69DB6A01229A401B4BA9
:100974001B681343194A1360BB69DA6A13469B0068
:1009840013449B00164A1A44BB69043319461046A3
:10099400FFF708FF0123FB61FFF76EFE02E04FF053
:1009A400FF33FB61FB69012B0BD10A4B1B68002B46
:1009B40007D0074B1B68DA6ABB6A9A4201D2FFF779
:1009C40039FEFB6918462037BD4680BD644D0020C2
:1009D4008C4C0020704D0020804D00206C4D002078
:1009E400904C002080B586B000AF78603960002359
:1009F4007B6100F087F8274B1B683B617B681A68B2
:100A04003B681344FB607B681A683B699A420BD9C4
:100A14007B681A68FB689A4211D9FA683B699A4262
:100A24000DD901237B610AE07B681A68FB689A424E
:100A340003D8FA683B699A4201D901237B617B6838
:100A4400FA681A607B69002B17D0134B1B680433B8
:100A54001846FFF703FF0346002B0BD10E4B1B6810
:100A6400DB6A012202FA03F3DA430C4B1B681340DE
:100A74000A4A1360F86800F0B3FA00F051F8B8605D
:100A8400BB68002B01D1FFF7D5FD00BF1837BD4669
:100A940080BD00BF684D00208C4C00206C4D0020B0
:100AA40080B586B004AF0023039300230293002390
:100AB400019300230093002380220D490D48FFF782
:100AC400F7FE78607B68012B0DD1FFF7E7FD0A4B39
:100AD4004FF0FF321A60094B01221A60084B0022C2
:100AE4001A60FFF789FD00BF0837BD4680BD00BF0F
:100AF4005C390008250E0008844D0020704D00204C
:100B0400684D002080B400AF044B1B680133034AD6
:100B1400136000BFBD4680BC704700BF884D0020F5
:100B240080B582B000AF00237B60FFF793FD334BA9
:100B34001B68013B314A1360304B1B68002B55D1B5
:100B44002F4B1B68002B51D02EE02E4BDB68DB684B
:100B54003B603B6818331846FFF780FE3B6804335C
:100B64001846FFF77BFE3B68DB6A01229A40264B5E
:100B74001B681343244A13603B68DA6A13469B00DC
:100B840013449B00214A1A443B6804331946104617
:100B9400FFF708FE3B68DA6A1D4B1B68DB6A9A4262
:100BA40002D31C4B01221A60164B1B68002BCCD1BC
:100BB400194B1B68002B11D00CE000F03DF80346E4
:100BC400002B02D0134B01221A60134B1B68013B0C
:100BD400114A1360104B1B68002BEED10D4B1B68A0
:100BE400012B03D101237B60FFF724FDFFF744FDB4
:100BF4007B6818460837BD4680BD00BF884D00207D
:100C0400644D0020244D00206C4D0020904C0020A9
:100C14008C4C0020784D0020744D002080B483B0AB
:100C240000AF044B1B687B607B6818460C37BD46DD
:100C340080BC7047684D002080B586B000AF0023AB
:100C44007B61494B1B68002B7DD1484B1B680133EA
:100C5400464A1360454B1B683B613B69002B10D12E
:100C6400434B1B68FB60434B1B68414A1360414A7A
:100C7400FB681360404B1B6801333F4A136000F06C
:100C840021FA3E4B1B683A699A424DD3384B1B6894
:100C94001B68002B01D1012300E00023002B04D0AA
:100CA400364B4FF0FF321A603EE0314B1B68DB6875
:100CB400DB68BB60BB685B687B603A697B689A42AF
:100CC40003D22E4A7B6813602EE0BB6804331846B7
:100CD400FFF7C4FDBB689B6A002B04D0BB681833C4
:100CE4001846FFF7BBFDBB68DB6A01229A40244B20
:100CF4001B681343224A1360BB68DA6A13469B00DD
:100D040013449B001F4A1A44BB6804331946104617
:100D1400FFF748FDBB68DA6A1B4B1B68DB6A9A4223
:100D2400B4D301237B61B1E7174B1B68DA6A154919
:100D340013469B0013449B000B441B68012B07D9EB
:100D440001237B6104E0114B1B6801330F4A1360DC
:100D54000F4B1B68002B01D001237B617B69184674
:100D64001837BD4680BD00BF884D0020684D002067
:100D74001C4D0020204D00207C4D0020844D00207F
:100D84006C4D0020904C00208C4C0020744D0020B1
:100D9400784D002080B485B000AF1C4B1B68002B3D
:100DA40003D01B4B01221A602AE0194B00221A605F
:100DB400184B1B687B607B68B3FA83F3FB70FB788A
:100DC400C3F11F03FB60FA6813469B0013449B00A6
:100DD400114A1344BB60BB685B685A68BB685A60BD
:100DE400BB685A68BB6808339A4204D1BB685B6825
:100DF4005A68BB685A60BB685B68DB68074A136063
:100E040000BF1437BD4680BC704700BF884D00202A
:100E1400784D00206C4D0020904C00208C4C00201C
:100E240080B582B000AF786000F09EF8034B1B6879
:100E3400012BF9D9FFF7FEFBF6E700BF904C002029
:100E440080B586B000AFF860B9607A603B6000237B
:100E54007B6112E0BA687B6913441978FA687B698C
:100E6400134434330A461A70BA687B6913441B78F6
:100E7400002B06D07B6901337B617B690F2BE9D999
:100E840000E000BFFB68002283F843207B68042B4A
:100E940001D904237B60FB687A68DA62FB687A68AC
:100EA4005A64FB6800229A64FB6804331846FFF70F
:100EB4006DFCFB6818331846FFF768FCFB68FA689A
:100EC4001A617B68C3F10502FB689A61FB68FA68E2
:100ED4005A62FB680022DA64FB68002283F850201F
:100EE40000BF1837BD4680BD80B582B000AF002377
:100EF4007B600CE07A6813469B0013449B00124A03
:100F040013441846FFF722FC7B6801337B607B683F
:100F1400042BEFD90D48FFF719FC0D48FFF716FC19
:100F24000C48FFF713FC0C48FFF710FC0B48FFF7C5
:100F34000DFC0B4B054A1A600A4B054A1A6000BFA8
:100F44000837BD4680BD00BF904C0020F44C002003
:100F5400084D0020244D0020384D0020504D002025
:100F64001C4D0020204D002080B582B000AF28E049
:100F7400FFF7C8FD174B1B68002B0CBF0123002390
:100F8400DBB27B60FFF7CCFD7B68002B19D1FFF748
:100F940061FB104BDB68DB683B603B68043318463D
:100FA400FFF75CFC0C4B1B68013B0B4A13600B4BBB
:100FB4001B68013B094A1360FFF75EFB386800F0C9
:100FC40071F8064B1B68002BD2D100BF0837BD4611
:100FD40080BD00BF384D0020644D00204C4D0020E2
:100FE40080B582B000AF7860134B1B687A685A6092
:100FF400124B1B687A689A4209D2114B1A680E4B3D
:101004001B68043319461046FFF7F0FB10E00D4B44
:101014001A68094B1B68043319461046FFF7E6FBB0
:10102400094B1B687A689A4202D2074A7B681360AC
:1010340000BF0837BD4680BD8C4C0020684D0020A1
:10104400204D00201C4D0020844D002080B584B02C
:1010540000AF03463960FB803B68002B06D1FB8858
:101064009B001846FFF784F9034600E03B68BB6029
:10107400BB68002B0ED05420FFF77AF9F860FB68A8
:10108400002B03D0FB68BA681A6305E0B868FFF761
:10109400FDF901E00023FB60FB6818461037BD46EC
:1010A40080BD00BF80B582B000AF78607B681B6BE9
:1010B4001846FFF7EBF97868FFF7E8F900BF08373F
:1010C400BD4680BD80B483B000AF0E4B1B681B6867
:1010D400002B01D1012300E00023002B04D00A4B94
:1010E4004FF0FF321A6008E0064B1B68DB68DB68D0
:1010F4007B607B685B68044A136000BF0C37BD46A5
:1011040080BC70471C4D0020844D002080B400AF8B
:1011140000BFBD4680BC704780B400AFFEE700BF8F
:1011240080B400AFFEE700BF80B400AFFEE700BFAD
:1011340080B400AFFEE700BF80B400AF00BFBD467F
:1011440080BC704780B500AF154A154B1B6843F04F
:10115400010313601249124B5A68124B13404B603F
:101164000F4A0F4B1B6823F0847323F480331360FE
:101174000B4A0B4B1B6823F480231360084A084B6B
:101184005B6823F4FE035360054B4FF41F029A601F
:1011940000F00CF8044B4FF000629A6000BF80BD71
:1011A400001002400000FFF800ED00E080B500AF41
:1011B40000F002F800BF80BD80B483B000AF00230C
:1011C4007B6000233B603A4A394B1B6843F480330D
:1011D4001360374B1B6803F400333B607B680133B7
:1011E4007B603B68002B03D17B68B3F5A06FF0D123
:1011F4002F4B1B6803F40033002B02D001233B6008
:1012040001E000233B603B68012B4BD1294A294B69
:101214001B6843F010031360264A264B1B6823F017
:1012240003031360234A234B1B6843F00203136038
:101234001F4A1F4B5B6853601D4A1D4B5B6853601C
:101244001B4A1B4B5B6843F480635360184A184B7A
:101254005B6823F47C135360154A154B5B6843F4B5
:10126400E8135360124A124B1B6843F080731360F7
:1012740000BF0F4B1B6803F00073002BF9D00C4A1E
:101284000B4B5B6823F003035360094A084B5B680C
:1012940043F00203536000BF054B5B6803F00C038B
:1012A400082BF9D100BF0C37BD4680BC704700BF86
:1012B400001002400020024080B483B000AF786088
:1012C400054A7B6843F0BF6343F40033D36000BF37
:1012D4000C37BD4680BC704700ED00E080B489B097
:1012E40000AF786039600023FB6100233B61002379
:1012F400BB610023FB6000237B610023BB603B6870
:10130400DB7803F00F03FB613B68DB7803F0100329
:10131400002B05D03B689B781A46FB691343FB619D
:101324003B681B88DBB2002B44D07B681B687B6165
:101334000023BB6138E00122BB6902FA03F3FB60BE
:101344003B681B881A46FB6813403B613A69FB689B
:101354009A4226D1BB699B00FB600F22FB6802FA0C
:1013640003F3BB60BB68DB437A6913407B61FA69B2
:10137400FB6802FA03F37A6913437B613B68DB7809
:10138400282B05D10122BB699A407B685A6108E089
:101394003B68DB78482B04D10122BB699A407B6807
:1013A4001A61BB690133BB61BB69072BC3D97B6875
:1013B4007A691A603B681B88FF2B46D97B685B6897
:1013C4007B610023BB613AE0BB690833012202FA66
:1013D40003F3FB603B681B881A46FB6813403B61C0
:1013E4003A69FB689A4227D1BB699B00FB600F22D4
:1013F400FB6802FA03F3BB60BB68DB437A69134002
:101404007B61FA69FB6802FA03F37A6913437B612F
:101414003B68DB78282B05D1BB69083301229A404D
:101424007B685A613B68DB78482B05D1BB6908337C
:1014340001229A407B681A61BB690133BB61BB69B5
:10144400072BC1D97B687A695A6000BF2437BD462F
:1014540080BC704780B483B000AF78600B467B805B
:1014640013467B707B78002B03D07A887B681A61E3
:1014740002E07A887B685A6100BF0C37BD4680BCA5
:10148400704700BF80B487B000AF786000237B61F1
:1014940000233B610023FB600023BB604C4B5B6873
:1014A40003F00C037B617B69042B07D0082B09D064
:1014B400002B33D17B68474A1A6033E07B68454A86
:1014C4001A602FE0424B5B6803F470133B61404B9E
:1014D4005B6803F48033FB603B699B0C02333B6124
:1014E400FB68002B06D13B693B4A02FB03F27B6895
:1014F4001A6017E0364B5B6803F40033002B06D008
:101504003B69354A02FB03F27B681A600AE03B69D7
:10151400304A02FB03F27B681A6003E07B682D4AC1
:101524001A6000BF2A4B5B6803F0F0037B617B69A0
:101534001B097B61294A7B6913441B78DBB2BB60BE
:101544007B681A68BB68DA407B685A60204B5B682A
:1015540003F4E0637B617B691B0A7B611F4A7B693F
:1015640013441B78DBB2BB607B685A68BB68DA4003
:101574007B689A60164B5B6803F460537B617B69FC
:10158400DB0A7B61154A7B6913441B78DBB2BB60C1
:101594007B685A68BB68DA407B68DA600C4B5B682E
:1015A40003F440437B617B699B0B7B610C4A7B6941
:1015B40013441B78DBB2BB607B68DA68BB68B2FBA0
:1015C400F3F27B681A6100BF1C37BD4680BC7047CC
:1015D4000010024000127A0000093D0008000020BB
:1015E4001800002080B483B000AF78600B46FB7015
:1015F400FB78002B06D00949084B5A697B681343D2
:101604004B6106E00549054B5A697B68DB4313408F
:101614004B6100BF0C37BD4680BC704700100240D0
:1016240080B483B000AF78600B46FB70FB78002B6E
:1016340006D00949084B9A697B6813438B6106E01D
:101644000549054B9A697B68DB4313408B6100BFF6
:101654000C37BD4680BC70470010024080B485B092
:1016640000AF78600B467B800023FB730023BB81B3
:1016740000237B817B681B8A9AB27B881340BB81E1
:101684007B689B899AB27B8813407B81BB89002B42
:1016940005D07B89002B02D00123FB7301E00023DA
:1016A400FB73FB7B18461437BD4680BC704700BFF4
:1016B40080B483B000AF78600B467B807B88DB43CB
:1016C4009AB27B681A8200BF0C37BD4680BC704753
:1016D40080B58CB000AF786039600023FB620023D2
:1016E400BB6200237B6200233B620023FB617B68B7
:1016F400FB617B681B8A9BB2FB62FA6A4CF6FF7340
:101704001340FB623B68DB881A46FB6A1343FB62A7
:10171400FB6A9AB27B681A827B689B899BB2FB62E4
:10172400FA6A4EF6F3131340FB623B689A883B68EF
:101734001B8913439AB23B685B8913439BB21A46D5
:10174400FB6A1343FB62FB6A9AB27B689A817B68EB
:101754009B8A9BB2FB62FA6A4FF6FF431340FB621B
:101764003B689B891A46FB6A1343FB62FB6A9AB285
:101774007B689A8207F108031846FFF783FEFB692A
:101784002F4A934202D17B69BB6201E03B69BB6291
:101794007B689B899BB29BB21BB2002B0CDABA6AA2
:1017A40013469B0013449A001A443B681B685B0071
:1017B400B2FBF3F37B620BE0BA6A13469B0013445B
:1017C4009A001A443B681B689B00B2FBF3F37B62EC
:1017D4007B6A1C4AA2FB03235B091B01FB62FB6AB5
:1017E4001B09642202FB03F37A6AD31A3B627B6807
:1017F4009B899BB29BB21BB2002B0CDA3B6ADB00C9
:101804003233104AA2FB03235B0903F00703FA6A8D
:101814001343FB620BE03B6A1B013233094AA2FB10
:1018240003235B0903F00F03FA6A1343FB62FB6AA9
:101834009AB27B681A8100BF3037BD4680BD00BFB5
:10184400003801401F85EB5180B483B000AF78604D
:101854000B46FB70FB78002B08D07B689B899BB2FE
:1018640043F400539AB27B689A8107E07B689B89B2
:101874009BB223F400539AB27B689A8100BF0C3761
:10188400BD4680BC704700BF80B487B000AF7860AD
:101894000B467B8013467B7000233B610023FB6077
:1018A4000023BB6000237B617B687B617B88DBB2A8
:1018B4005B09DBB23B617B8803F01F03FB60012201
:1018C400FB6802FA03F3BB603B69012B03D17B691C
:1018D4000C337B6109E03B69022B03D17B69103334
:1018E4007B6102E07B6914337B617B78002B06D03B
:1018F4007B697A691168BA680A431A6006E07B69F1
:101904007A691168BA68D2430A401A6000BF1C376A
:10191400BD4680BC704700BF80B483B000AF786020
:101924000B467B807B88C3F308039AB27B689A805A
:1019340000BF0C37BD4680BC704700BF80B483B085
:1019440000AF78607B689B889BB2C3F308039BB2AB
:1019540018460C37BD4680BC704700BF80B485B0C4
:1019640000AF78600B467B800023FB737B681B8889
:101974009AB27B8813409BB2002B02D00123FB73E5
:1019840001E00023FB73FB7B18461437BD4680BC83
:10199400704700BF80B487B000AF78600B467B808F
:1019A4000023FB6000237B610023BB600023FB74E6
:1019B4007B88DBB25B09DBB2BB607B8803F01F036F
:1019C4007B6101227B6902FA03F37B61BB68012B13
:1019D40007D17B689B899BB21A467B6913407B6164
:1019E40011E0BB68022B07D17B681B8A9BB21A46A5
:1019F4007B6913407B6106E07B689B8A9BB21A4635
:101A04007B6913407B617B881B0A9BB2FB600122CC
:101A1400FB6802FA03F3FB607B681B889BB21A46DF
:101A2400FB681340FB607B69002B05D0FB68002B2F
:101A340002D00123FB7401E00023FB74FB7C1846F5
:101A44001C37BD4680BC7047002103E00B4B5B583C
:101A5400435004310A480B4B42189A42F6D30A4ABF
:101A640002E0002342F8043B084B9A42F9D3FFF703
:101A740069FB00F0D5FA00F035F87047B439000876
:101A8400000000205C0800205C0800203C5000207E
:101A9400FEE7000080B582B000AF01218820FFF787
:101AA400BFFD1023FB710323BB710123BB803B1DCE
:101AB40019460A48FFF712FC4FF4C073BB803B1D64
:101AC40019460748FFF70AFC012201210348FFF7E2
:101AD400C1FC00BF0837BD4680BD00BF000C0140FB
:101AE400001C014080B584B004AFFFF7D3FF4FF46E
:101AF400E13000F0D7F84FF4C060FFF7DDFB0121BF
:101B04004020FFF76FFD002303930023029300237B
:101B14000193042300930023B2220A490A48FEF7E2
:101B2400C7FE00230393002302930023019305239C
:101B340000930023B22205490548FEF7B9FEFEF7DB
:101B4400AFFFFEE764390008591B00086C39000830
:101B5400A51B000880B584B000AF78600023FB7338
:101B6400FFF75CF80346BB60FB7B1A4601210A4879
:101B7400FFF770FCFB7B002B0CBF01230023DBB2BF
:101B8400FB73064800F0F4FA07F108034FF4FA7106
:101B94001846FEF727FFE7E7000C014074390008F8
:101BA40080B584B000AF78600123FB73FFF736F88B
:101BB4000346BB60FB7B1A4680210A48FFF74AFCB8
:101BC400FB7B002B0CBF01230023DBB2FB73064815
:101BD40000F0CEFA07F108034FF4FA711846FEF745
:101BE40001FFE7E7001C01407C39000880B500AF25
:101BF40001210648FFF732FD0346002B03D00121E3
:101C04000248FFF755FD00BF80BD00BF002C014016
:101C140080B500AF01214FF08040FFF71FFD034660
:101C2400002B34D001214FF08040FFF741FD194BC8
:101C3400B3F8CC30002B07D0164BB3F8CC30013BB3
:101C44009AB2144BA3F8CC20134BB3F8CC30002B2E
:101C540007D0114BB3F8CC30013B9AB20E4BA3F82A
:101C6400CC200E4BB3F8CC30002B07D00B4BB3F881
:101C7400CC30013B9AB2094BA3F8CC20084B1B682B
:101C8400002B04D0064B1B68013B054A136000BFC0
:101C940080BD00BF984E0020C84D0020684F002032
:101CA4008C4D002080B588B000AF7860012144F2EB
:101CB4000500FFF7B5FC0323BB774FF40073BB8328
:101CC4001823FB7707F11C0319461748FFF706FB97
:101CD4004FF48063BB830423FB7707F11C0319468D
:101CE4001148FFF7FBFA7B68FB6000233B8200236B
:101CF4007B820023BB8200233B830C23FB8207F1FE
:101D04000C0319460948FFF7E3FC01210748FFF7D4
:101D14009BFD012240F225510448FFF7B5FD00BFA9
:101D24002037BD4680BD00BF000801400038014097
:101D340080B582B000AF40F225511A48FFF72AFE61
:101D44000346002B24D01748FFF7F8FD0346FB7128
:101D5400154B93F8CB30002B07D1134B012283F89A
:101D6400CB20114B002283F8C9200F4B93F8C930C4
:101D740019460D4AFB7953540B4B93F8C930013380
:101D8400DAB2094B83F8C920074B0A22A3F8CC2006
:101D940040F226610348FFF7FDFD00BF0837BD464A
:101DA40080BD00BF00380140984E002080B582B04D
:101DB40000AF40F225511A48FFF7ECFD0346002B13
:101DC40024D01748FFF7BAFD0346FB71154B93F86F
:101DD400CB30002B07D1134B012283F8CB20114BBE
:101DE400002283F8C9200F4B93F8C93019460D4AD5
:101DF400FB7953540B4B93F8C9300133DAB2094BD6
:101E040083F8C920074B0A22A3F8CC2040F22661AC
:101E14000348FFF7BFFD00BF0837BD4680BD00BFC4
:101E240000440040C84D002080B582B000AF40F2AD
:101E340025511A48FFF7AEFD0346002B24D017485E
:101E4400FFF77CFD0346FB71154B93F8CA30002B5A
:101E540007D1134B012283F8CB20114B002283F8C6
:101E6400C9200F4B93F8C93019460D4AFB795354D6
:101E74000B4B93F8C9300133DAB2094B83F8C9200C
:101E8400074B0A22A3F8CC2040F225510348FFF760
:101E940081FD00BF0837BD4680BD00BF004800403B
:101EA400684F002080B586B000AFF860B9607A60F2
:101EB40000237B6100233B6100237B6118E0BB6846
:101EC4001B785BB29BB219460E48FFF725FD00BF95
:101ED40040210C48FFF742FD0346002BF8D0BB68B5
:101EE4000133BB603B6901333B617B6901337B6137
:101EF4007A697B689A42E2DB3B6918461837BD462B
:101F040080BD00BF0038014080B584B000AF786068
:101F1400144B1B68002B02D1124B134A1A60114B4D
:101F24001B68FB607B68033323F003037B600D4B6A
:101F34001A687B6813440D4A934207D900F06AF883
:101F440002460C2313604FF0FF3306E0054B1A687A
:101F54007B681344034A1360FB6818461037BD4678
:101F640080BD00BF904D00203C5000203C5000201C
:101F740080B582B000AF786000F04CF80246582378
:101F840013604FF0FF3318460837BD4680BD00BFCD
:101F940080B582B000AF7860396000F03BF802464B
:101FA400582313604FF0FF3318460837BD4680BDF1
:101FB40080B582B000AF786000F02CF80246582358
:101FC4001360002318460837BD4680BD80B584B031
:101FD40000AFF860B9607A6000F01CF8024658233C
:101FE40013604FF0FF3318461037BD4680BD00BF65
:101FF40080B584B000AFF860B9607A6000F00AF888
:102004000246582313604FF0FF3318461037BD467D
:1020140080BD00BF014B1868704700BF4804002012
:1020240070B50F4E0F4D761BB61018BF002405D0A7
:10203400013455F8043B9847A642F9D10A4E0B4D9A
:1020440001F0A4FC761BB61018BF002406D001349E
:1020540055F8043B9847A642F9D170BD70BD00BF46
:10206400A8390008A8390008B0390008A8390008C0
:1020740070B4840746D0541E002A41D0CDB2034622
:1020840002E0621EE4B3144603F8015B9A07F8D138
:10209400032C2ED9CDB245EA05250F2C45EA05457A
:1020A40019D9264603F11002103E0F2E42F8105C97
:1020B40042F80C5C42F8085C42F8045C02F110023D
:1020C400F2D8A4F1100222F00F0204F00F0410322F
:1020D400032C13440DD91E462246043A032A46F81B
:1020E400045BFAD8221F22F003020432134404F0E2
:1020F40003042CB1C9B21C4403F8011BA342FBD155
:1021040070BC704714460346C2E700BFF0B50546ED
:1021140089B008460C4600F033F8431C134F039370
:10212400AB6B012604A9022204940590AC680697BF
:10213400079601910292ABB1A3899A0406D4626E08
:1021440043F4005322F40052A381626621462846D8
:1021540001AA00F0EFF8002814BF4FF0FF300A2066
:1021640009B0F0BD284600F0C7F8E5E78C3900084F
:10217400024B01461868FFF7C9BF00BF480400209E
:1021840020F0030110F00300C0F1000051F8043BFB
:1021940000F1040C4FEACC0C6FF000021CBF22FAD1
:1021A4000CF213434FF0010C4CEA0C2C4CEA0C4C8F
:1021B400A3EB0C0222EA030212EACC1204BF51F888
:1021C400043B0430F4D0C2F1000102EA0102B2FA85
:1021D40082F2C2F11F0200EBD2007047024B13B12E
:1021E400024800F005B87047000000001123000801
:1021F400002301461A46184601F056B8014900F07A
:102204001BBA00BF753300082DE9F04F0746354867
:102214007D68002407F53B7204230321F863C7F8A3
:10222400E412C7F8E822C7F8E04283B02C606C607F
:10223400AC606C66EC812C616C61AC61AB81214655
:1022440005F15C000822FFF713FFDFF89CB0BE68BD
:10225400DFF898A0DFF89890DFF89880012309222E
:10226400C5F820B0C5F824A0C5F82890C5F82C807E
:10227400ED612146F381B28106F15C003460746043
:10228400B460746634617461B46108220193FFF729
:10229400EFFEFD6812200222F661C6F820B0C6F8EF
:1022A40024A0C6F82890C6F82C802146A881EA818B
:1022B4002C606C60AC606C662C616C61AC6105F187
:1022C4005C000822FFF7D4FE019BED61C5F820B045
:1022D400C5F824A0C5F82890C5F82C80BB6303B0CA
:1022E400BDE8F08F01220008393100085D31000893
:1022F40095310008B5310008836B03B17047FFF7CF
:1023040083BF00BF704700BF704700BF38B5074D9B
:10231400074C2C1BA41005D0013C55F8043D9847EC
:10232400002CF9D1BDE8384001F036BBB4390008BF
:10233400B03900089368002B00F0AB802DE9F04F12
:102344008B8985B00C4619070290164628D5226958
:1023540032B303F002081FFA88F0356878B34FF0FF
:102364000009C846DFF8CCA2B8F1000F00F08B805A
:10237400D04543464A4628BF5346E1690298676AF6
:10238400B847002840F3A580B36881441B1AC0EB0A
:102394000808B360002BE7D1002005B0BDE8F08F3A
:1023A4002146029800F01EFF002840F03B81A389DB
:1023B400356803F002081FFA88F00028CFD113F023
:1023C400010940F08F804F460196002F56D09A05A0
:1023D400D4F808805FD54745C246C0F0BE8013F4E8
:1023E400906F00F0BC8062692068216902EB4208AA
:1023F400C1EB000A08EBD8780AF101004FEA68083B
:1024040038444045424684BF804642465B0540F11D
:10241400F1801146029800F037F98346002800F055
:10242400048152462169FDF72DFFA38923F49063AB
:1024340043F08003A381CAEB08030BEB0A00C4F842
:102444001480BA46B846C4F810B02060A36052465F
:10245400494600F00BFCA0682368C8EB0000A060AC
:10246400384653442360019A814493683F1A1B1AE7
:102474009360002B90D0A389002FA8D1D5F80090A9
:102484006F680835A1E7D5F80090D5F804800835C1
:102494006AE70020704720682369984203D862697C
:1024A400974280F08280B84528BFB84649464246E4
:1024B40000F0DCFBA3682268C8EB03034244A3607A
:1024C4002260002B47D12146029801F037F80028FA
:1024D40041D0A38943F040034FF0FF30A38105B0FE
:1024E400BDE8F08F8046824681460190B9F1000F25
:1024F40029D0019B002B4BD0C845C34628BFCB46EF
:10250400206823695F469842626903D9A36813442B
:102514009B455CDC934524DB1346676A5246E169BC
:102524000298B847071ED4DDB8EB070827D0B36874
:10253400BA44DB1BC7EB0909B360002B3FF42CAF93
:10254400B9F1000FD5D10023D5F800A0D5F8049037
:1025540001930835CAE7404685E7B846BA4620687D
:1025640075E75A46514600F081FBA2682368CBEB1D
:1025740002025B44B8EB0708A2602360D7D121466E
:10258400029800F0DBFF0028A3D1CDF80480CEE749
:102594004A460A21504600F023FB00283DD0013072
:1025A4000123CAEB00080193A6E76FF00043BB4286
:1025B40028BF3B4693FBF2F3E16902FB03F3029865
:1025C4004A46666AB04700283FF74DAF81E71A468E
:1025D4005146039300F04AFB2268039B21461A44A8
:1025E4002260029800F0AAFF039B00287FF471AFD9
:1025F4001F4699E7029800F0A1FB834600287FF468
:102604001AAF029D2169284600F0FCFFA3890C2221
:1026140023F080039BB22A605CE7012309F10108DF
:10262400019369E74FF0FF30B7E6029A0C23136079
:10263400A3894FE700FCFF7F2DE9F84310F53876B6
:102644001ED0884607464FF000097568B468013DFE
:1026540010D4A389013D012B08D9B4F90E300133FC
:1026640004D021463846C04749EA00096B1C04F1EE
:102674006804EED13668002EE7D14846BDE8F883F9
:10268400B1464846BDE8F8832DE9F04F01F10B054A
:10269400162D83B0064640F2A08035F0070500F100
:1026A400C080A94200F2BD8000F044FBB5F5FC7F78
:1026B400C0F090826B0A00F0BB80042B00F277819B
:1026C400A80900F1390E4FEA4E013830BE4F07EB2E
:1026D40081014C680839A14207D1AEE0002A80F29A
:1026E400AE80E468A14200F0A880636823F003038D
:1026F4005A1B0F2AF2DDB4493C6901F1080E7445F6
:1027040000F0A881636823F003035A1B0F2A00F327
:102714008E81002AC1F814E0C1F810E080F29380A1
:10272400B3F5007F80F05C81DB084A684FEAA309B7
:102734004FF0010C013351F833800CFA09F901EB25
:10274400C30C49EA0202ACF1080CC4F80CC0C4F88A
:1027540008804A6041F83340C8F80C4083100124D3
:102764009C4094427CD8144206D120F003006400BB
:10277400144200F10400FAD007EBC009CC468046AD
:10278400DCF80C108C4507D166E1002A80F27481D4
:10279400C9688C4500F060814B6823F003035A1B21
:1027A4000F2AF2DD0C46CB6854F808CF45F0010837
:1027B400C1F804800D4442F00101CCF80C303046DD
:1027C400C3F808C07D613D61C5F80CE0C5F808E0B8
:1027D4006960AA5000F0B0FA1FE0102921D800F077
:1027E400A9FA102506230220774F07EB83035C68C0
:1027F400A3F10802944200F038816368E16823F091
:10280400030323445A68A56842F00102E960304694
:102814008D605A6000F090FA0834204603B0BDE899
:10282400F08F002420460C23336003B0BDE8F08F02
:1028340080214FF0400E3F2048E770465BE7234479
:102844005A68E168DFE723445A68304642F00102DF
:102854005A60083400F070FA204603B0BDE8F08FE7
:10286400BC68636823F00308A84504D3C5EB0803D8
:102874000F2B00F38C80554BDFF860911A68D9F860
:1028840000302A44013304EB080A00F0608102F5A9
:1028940080520F3222F47F6222F00F02114630463A
:1028A400019200F035FCB0F1FF3F8346019A00F03D
:1028B4005881824500F2FC80454BDA451968114481
:1028C400196000F05381D9F80000DFF810E10130FD
:1028D4001BBFCAEB0B0A5144CEF800B019601BF0C1
:1028E400070100F01781C1F10800C1F5805183444C
:1028F40008315A44C2F30B02C2EB0109494630467F
:10290400019300F005FC431C019B00F03F81CBEBDD
:1029140000024A4442F001021968BC424944C7F823
:1029240008B01960CBF80420DFF8A49016D0B8F1F1
:102934000F0F40F2FD806268A8F10C0323F0070337
:1029440002F00102E0184FF0050E1A430F2B6260EB
:10295400C0F804E0C0F808E000F21C811D4BBC681C
:102964001A68914288BF19601B4B1A6891426268C9
:1029740088BF196022F003029542A2EB050301D837
:102984000F2B04DC304600F0D7F9002445E745F06E
:10299400010243F00103254462603046BD600834FF
:1029A4006B6000F0C9F9204603B0BDE8F08F142B2A
:1029B40071D9542B00F2A480280B00F16F0E4FEA5A
:1029C4004E016E3082E600BF4C0400209C4D002076
:1029D400A04D0020984D0020944D00205808002060
:1029E4005A0A042A5ED9142A00F2B38002F15C0167
:1029F40049005B3207EB810C57F82110ACF1080C4D
:102A04008C45DFF8D88100F088804A6822F0030200
:102A1400934202D289688C45F7D1D1F80CC07A6808
:102A2400C4F80CC0A160CCF80840CC6096E645F030
:102A3400010742F001032544676030464D610D6192
:102A4400C5F80CE0C5F808E06B60AA50083400F043
:102A540073F9E2E64A6881E608F1010818F0030F09
:102A64000CF1080C7FF48CAE30E0DC68A34208BFA4
:102A740002303FF440AEC0E60C460B445A68C968C5
:102A840054F8085F42F001025A603046E9608D60F4
:102A940000F052F9C1E603F15C0E03F15B004FEA6A
:102AA4004E0113E69A0902F1390149003832A1E7CF
:102AB400BC424A4B3FF400AF9C68626822F00302B8
:102AC4005AE759F80839994540F0828010F0030F0D
:102AD40000F1FF30F5D17B6823EA04037B606400D6
:102AE4009C423FF6BDAE002C3FF4BAAE1C424046B9
:102AF4007FF442AE64001C4200F10400FAD03BE6CD
:102B0400B3F5AA7F18D8E80B00F1780E4FEA4E010E
:102B14007730DBE54FF48051EBE60121D8F804303F
:102B2400921001FA02F21A43C8F80420614677E7CA
:102B34000123CBF8043025E740F25452934220D8C5
:102B4400A80C00F17D0E4FEA4E017C30BEE5103238
:102B5400A4E6542A26D81A0B02F16F0149006E32FA
:102B640048E7BC68626822F0030205E7CAF30B0079
:102B740000287FF4A8AE4244BB6842F001025A60C8
:102B8400ECE6FE214FF07F0E7E209FE501224FF000
:102B94000009C1E604F10801304600F033FDD9F81C
:102BA4000010DBE6B2F5AA7F05D8DA0B02F1780152
:102BB400490077321EE740F254518A4205D89A0CF4
:102BC40002F17D0149007C3214E7FE217E2211E7E7
:102BD4007B6884E7E808431C5B0005E64C0400209E
:102BE400830770B4CDB23DD0531E02B30278AA421B
:102BF4001ED0421C04E0D3B10478013BAC4217D090
:102C040012F0030F104602F10102F4D1032B11D884
:102C140053B30278AA420BD00344421C02E0017869
:102C2400A94205D09342104602F10102F7D10020D7
:102C340070BC704704460E0206F47F462E4346EAF3
:102C44000646226820467240A2F1013121EA0202BE
:102C540012F0803F04F10404DBD1043B032B204633
:102C6400EFD8D5E71346D1E71846E1E78842F0B537
:102C74000DD98B1898420AD28118002A51D09A1A79
:102C840013F8014D934201F8014DF9D1F0BD0F2A1B
:102C940048D941EA00039B0746D1154600F11004C8
:102CA40001F1100353F8106C103D44F8106C53F804
:102CB4000C6C0F2D44F80C6C53F8086C04F11004E0
:102CC40044F8186C53F8046C03F1100344F8146CC2
:102CD400E8D8A2F1100323F00F0302F00F0E103313
:102CE400BEF1030F1944034421D90E4674461D1F37
:102CF40056F8047B043C032C45F8047FF8D8AEF165
:102D0400040424F0030404342344214402F00302A1
:102D140062B1013B0A4411F8014B8A4203F8014FA6
:102D2400F9D1F0BD0346F3E70346F2E7F0BD72467E
:102D3400EEE700BF704700BF704700BF2DE9F04FBA
:102D4400174683B0002900F08F800D46814607F1B5
:102D54000B04FFF7EFFF55F804EC162C2EF00306D6
:102D6400A5F108083CD810221446A7423DD8964243
:102D740042DAC64B08EB060099688842416800F0C5
:102D8400D78021F0010303445B68DB074CD51EF0B8
:102D9400010F00F09D8039464846FFF775FC074651
:102DA40000283AD055F8043CA0F1080223F00103AE
:102DB40043449A4200F03E81321F242A00F22B81C0
:102DC400132A00F2FF8003462A46116819605168ED
:102DD400596092689A602946484600F013FC1CE04A
:102DE40024F00704002C2246BFDA0C230020C9F883
:102DF400003003B0BDE8F08F2F46331B0F2BD8F8FB
:102E040004201DD802F00102324308EB0601C8F881
:102E140004204B6843F001034B604846FFF78CFFE6
:102E2400384603B0BDE8F08F21F0030131449142EC
:102E340020DBC36882682F46D3600E469A60DCE7C5
:102E440002F0010208EB0401144343F00102C8F844
:102E540004400B444A605A68083142F001025A6047
:102E6400484600F0CFFBD8E7114603B0BDE8F04F69
:102E7400FFF70ABC1EF0010F8DD155F8083CC3EBD7
:102E8400080ADAF8043023F0030C01EB0C0E964523
:102E940026DB5746C3688168321FCB60996057F8B8
:102EA400081FDAF80C30242ACB60996000F2C9803C
:102EB400132A40F292802B681B2ACAF808306B68E8
:102EC400CAF80C3000F2CD8008350AF1100385E011
:102ED40055F8083CC3EB080ADAF8043023F0030C75
:102EE40006EB0C039342FFF656AF5746DAF80C1084
:102EF40057F8080F321F242AC160886000F2AA80A4
:102F0400132A40F2A58029681B2ACAF808106968A8
:102F1400CAF80C1000F2BC8008350AF110022968C6
:102F24001E4611606968D0465160AB68936064E7DF
:102F340021F0030B04F11000B344834557DA1EF06B
:102F4400010F7FF428AF55F8081CC1EB080ADAF822
:102F5400041021F0030CE3445845C1DC5746DAF869
:102F64000C1057F8080F321F242AC160886000F241
:102F7400B180132A40F2A28029681B2ACAF80810DB
:102F84006968CAF80C1000F2AC8008350AF1100226
:102F94002968116069685160A9689160C4EB0B02EB
:102FA4000AEB040142F0010299604A60DAF8043045
:102FB400484603F001031C43CAF80440FFF7BCFE73
:102FC40038462EE72B681B2A03606B68436026D8BB
:102FD40000F1080305F10802F7E63B462A68764645
:102FE4001A606A68D0465A60AA689A6005E7C4EB1A
:102FF4000B0B08EB04014BF0010299604A6055F891
:10300400043C484603F001031C4345F8044CFFF715
:1030140093FE284605E72946FFF728FEDBE6AB6862
:10302400242A8360EB68C36027D000F1100305F104
:103034001002CAE650F8043C2F4623F003031E4452
:10304400DBE6294638467646D046FFF70FFED4E63F
:103054003A4664E7294638461E46D046FFF706FE40
:10306400CBE6AB68242ACAF81030EB68CAF81430EF
:103074001AD010350AF11803B0E72A6900F11803D1
:103084000261696905F1180241619EE64C04002061
:10309400A968242ACAF81010E968CAF814100FD0D5
:1030A40010350AF118023AE72A690AF12003CAF82E
:1030B40018206A691835CAF81C208FE73A4667E772
:1030C40029690AF12002CAF8181069691835CAF882
:1030D4001C1024E7294638460193FFF7C7FD019BDE
:1030E4005CE7A968242ACAF81010E968CAF8141021
:1030F40003D010350AF118024AE729690AF12002BF
:10310400CAF8181069691835CAF81C1040E700BFDE
:1031140038B5074C0023054608462360FEF7F4FE45
:10312400431C00D038BD2368002BFBD02B6038BD76
:103134003850002010B50C46B1F90E1000F0D0FB49
:10314400002803DB236D0344236510BDA38923F406
:103154008053A38110BD00BF2DE9F0410C4689893D
:103164001F46CB051646054606D5B4F90E100223B4
:10317400002200F02FFBA18921F48051A1813B465C
:103184003246B4F90E102846BDE8F04100F014B8F8
:1031940010B50C46B1F90E1000F01CFBA389421CBB
:1031A4000EBF23F4805343F480532065A38110BDE4
:1031B400B1F90E1000F0CAB870B50D46084C1146AE
:1031C40006461A46284600232360FEF76BFE431C7E
:1031D40000D070BD2368002BFBD0336070BD00BFEE
:1031E4003850002038B52F4B054618680C4610B1EE
:1031F400836B002B36D0A28993B218070CD52069B3
:10320400A8B113F001021ED0636900225B42A361DE
:10321400A260F0B1002038BDD9063AD5580724D4AD
:10322400206942F00803A3819BB20028E9D103F48A
:103234002072B2F5007FE4D02846214600F0E0FA7F
:10324400A3892069DDE7990758BF6269A260002855
:10325400E0D1A3891A06DED543F04003A3814FF0E1
:10326400FF3038BDFFF748F8C5E7216B49B104F1D9
:103274004003994203D0284600F0C4F9A2890023F0
:103284002363206922F02402002392B284E8090017
:10329400C7E742F0400209232B604FF0FF30A281C0
:1032A40038BD00BF480400202DE9F047254C0646F0
:1032B40025688846D5F8484192469946C4B3606863
:1032C4001F2817DC411C76B104EB8003C3F888A0E7
:1032D400D4F88851012282401543022EC4F8885143
:1032E400C3F808911ED0831C6160002044F8238039
:1032F400BDE8F087144B03B34FF4C870AFF30080FC
:103304000446D0B1D5F84831002784E8880038460F
:10331400C5F848410121C4F88871C4F88C71002EA5
:10332400E1D0D1E7D4F88C311A43C4F88C21DAE720
:1033340005F5A674C5F84841C1E74FF0FF30BDE874
:10334400F08700BF883900080000000038B5074C3A
:103354000023054608462360FEF70AFE431C00D0FE
:1033640038BD2368002BFBD02B6038BD38500020BB
:1033740000293DD070B505460C4608B1836B7BB37C
:10338400B4F90C300BB9002070BD2146284600F07A
:1033940031F8E36A064633B1E169284698470028C4
:1033A400B8BF4FF0FF36A3891B061CD4216B41B173
:1033B40004F14003994202D0284600F023F9002387
:1033C4002363616C21B1284600F01CF90023636477
:1033D400FEF798FF0023A381FEF796FF304670BDE9
:1033E400FEF78AFFCCE72169284600F00BF9DDE7F8
:1033F400002070478B892DE9F0419AB20D461107E0
:1034040080463CD46A6843F40063002AAB8173DDD0
:10341400AE6A002E4BD09BB203F48052002192B2CC
:10342400D8F80040C8F80010002A69D02A6D5F0758
:1034340005D569682B6B521A0BB1EB6BD21A0023BA
:10344400E9694046B047461C3CD0AB892A6923F45D
:1034540000639BB20021AB81DB042A60696049D41C
:10346400296BC8F8004011B305F14003994202D01A
:10347400404600F0C7F800202863BDE8F0812E69BB
:10348400AEB191072C680CBF6B6900232E60A41B9E
:10349400AB600AE0234632466F6AE9694046B847A2
:1034A4000028A4EB0004064404DD002CF2DC002018
:1034B400BDE8F081AB894FF0FF3043F04003AB81AE
:1034C400BDE8F081D8F800101D29F3D81A4BCB4081
:1034D40003F0010383F00106002BEBD0AB892A69CA
:1034E40023F400639BB22A60DA046E60AB81B7D523
:1034F4000029B5D12865B3E7EA6B002A88DCD6E752
:103504000123E9694046B047431C024602D0AB8917
:10351400AE6A8CE7D8F80030002BF8D01D2B01D010
:10352400162B02D1C8F80040C1E7AB8943F0400331
:10353400AB81BDE8F08100BF0100402010B5044616
:1035440082B008B1836B53B1B1F90C0008B902B071
:1035540010BD204602B0BDE81040FFF74BBF0191FB
:10356400FEF7CAFE0199EFE7F8B50C46224F06466E
:10357400FFF7E0FBBB685D6825F00305291B01F636
:10358400EF7121F47F6121F00F01A1F58054B4F5AE
:10359400805F07DB00213046FFF7BAFDBB682B4490
:1035A400984204D03046FFF7C7FB0020F8BD6142C3
:1035B4003046FFF7ADFD01300DD0104BBA681968E5
:1035C4002D1B45F001053046091B55601960FFF7B6
:1035D400B3FB0120F8BD00213046FFF799FDBA681E
:1035E400831A0F2BDEDD064C0449246843F00103E3
:1035F400001B53600860D5E74C040020A04D002058
:1036040058080020002945D02DE9F0410D46804698
:10361400FFF790FB55F8047C6A49A5F1080427F0EC
:103624000103E2188E685068B24220F0030062D0B1
:10363400FE0750600BD455F8087C01F1080EE41B1A
:10364400A5683B4475456FD0E768EF60BD60151809
:103654006D68ED0742D543F001026260E350B3F5B3
:10366400007F18D2DB0848689D100122013351F80D
:10367400337002FA05F501EBC3022843083AE2600D
:10368400A760486041F83340FC604046BDE8F04123
:10369400FFF752BB70475A0A042A53D89A0902F119
:1036A40039077F0002F1380501EB870051F8272024
:1036B4000838904243494DD0516821F003018B42B0
:1036C40002D292689042F7D1D068E060A260846030
:1036D400D4604046BDE8F041FFF72EBB95683A4FF1
:1036E4000344BD423FD0D06843F00102E8608560E6
:1036F4006260E350B3E7FF07034407D455F8085C5E
:10370400641BE268A0682B44C26090602F4A43F0B7
:1037140001001268606093428C60B6D32C4B404623
:103724001968FFF721FFB0E711184968C90744D4A5
:1037340091680344D26843F00100CA6091606060FC
:10374400E350A2E7142A17D802F15C077F0002F1C4
:103754005B05A9E7AA104B68012505FA02F2134399
:103764004B600246B1E743F001024C610C61E56035
:10377400A5606260E35088E7542A06D81A0B02F168
:103784006F077F0002F16E058EE7B2F5AA7F06D8B7
:10379400DA0B02F178077F0002F1770584E740F243
:1037A4005450824206D89A0C02F17D077F0002F140
:1037B4007C0579E7FE277E2576E743F00102626007
:1037C400E35062E74C040020540400205408002015
:1037D4009C4D002070B50D46084C114606461A460D
:1037E400284600232360FEF7F1FB431C00D070BD84
:1037F4002368002BFBD0336070BD00BF385000201D
:103804008B899AB212F0020F3CD1F0B50C46B1F993
:103814000E1091B00029054619DB01AA00F076F8D4
:10382400002812DB029B03F47043A3F50057B7FA98
:1038340087F7B3F5004F4FEA57172AD0A3894FF4FF
:10384400806643F40063A3810BE0A3899AB212F06B
:10385400800F43F40063A38114BF40264FF48066B5
:10386400002731462846FEF70FFFA38940B31A4AC2
:1038740043F08003EA63A3812060206166619FB9FD
:1038840011B0F0BD01F1430301220B600B614A61E9
:103894007047124BA26A9A42D0D1A3894FF4806632
:1038A4003343A381E664DCE72846B4F90E1000F044
:1038B40041F80028E4D0A38943F00103A381DFE7A2
:1038C4009A05DDD404F1430243F002030121A381EC
:1038D400226022616161D3E701220008953100086A
:1038E40070B50D46084C114606461A462846002374
:1038F4002360FEF77DFB431C00D070BD2368002BC2
:10390400FBD0336070BD00BF3850002038B50B4683
:10391400074C05461146184600232360FEF738FB82
:10392400431C00D038BD2368002BFBD02B6038BD6E
:103934003850002038B5074C00230546084623605C
:10394400FEF736FB431C00D038BD2368002BFBD0A8
:103954002B6038BD3850002049444C45000000001D
:103964004C454431000000004C4544320000000046
:103974004C4544310D0000004C4544320D0000001C
:1039840043000000200000200A000000F8B500BF3A
:10399400F8BC08BC9E467047F8B500BFF8BC08BC2C
:0439A4009E46704784
:0839A800E121000851020008B2
:0439B00029020008E0
:1039B400F8430000AAAAAAAA000000000102030416
:1039C40001020304060708090204060800000000B7
:1039D400000000000C03002074030020DC0300201E
:1039E40000000000000000000000000000000000D3
:1039F40000000000000000000000000000000000C3
:103A040000000000843900080000000000000000ED
:103A140000000000000000000000000000000000A2
:103A24000000000000000000000000000000000092
:103A34000000000000000000000000000000000082
:103A44000000000000000000000000000000000072
:103A54000000000000000000000000000000000062
:103A64000000000000000000000000000000000052
:103A74000000000000000000010000000000000041
:103A84000E33CDAB34126DE6ECDE05000B00000006
:103A94000000000000000000000000000000000022
:103AA4000000000000000000000000000000000012
:103AB4000000000000000000000000000000000002
:103AC40000000000000000000000000000000000F2
:103DF400000000000000000020000020000000007F
:103E0400000000004C0400204C0400205404002056
:103E1400540400205C0400205C040020640400209E
:103E2400640400206C0400206C040020740400204E
:103E3400740400207C0400207C04002084040020FE
:103E4400840400208C0400208C04002094040020AE
:103E5400940400209C0400209C040020A40400205E
:103E6400A4040020AC040020AC040020B40400200E
:103E7400B4040020BC040020BC040020C4040020BE
:103E8400C4040020CC040020CC040020D40400206E
:103E9400D4040020DC040020DC040020E40400201E
:103EA400E4040020EC040020EC040020F4040020CE
:103EB400F4040020FC040020FC040020040500207D
:103EC400040500200C0500200C050020140500202A
:103ED400140500201C0500201C05002024050020DA
:103EE400240500202C0500202C050020340500208A
:103EF400340500203C0500203C050020440500203A
:103F0400440500204C0500204C05002054050020E9
:103F1400540500205C0500205C0500206405002099
:103F2400640500206C0500206C0500207405002049
:103F3400740500207C0500207C05002084050020F9
:103F4400840500208C0500208C05002094050020A9
:103F5400940500209C0500209C050020A405002059
:103F6400A4050020AC050020AC050020B405002009
:103F7400B4050020BC050020BC050020C4050020B9
:103F8400C4050020CC050020CC050020D405002069
:103F9400D4050020DC050020DC050020E405002019
:103FA400E4050020EC050020EC050020F4050020C9
:103FB400F4050020FC050020FC0500200406002078
:103FC400040600200C0600200C0600201406002025
:103FD400140600201C0600201C06002024060020D5
:103FE400240600202C0600202C0600203406002085
:103FF400340600203C0600203C0600204406002035
:10400400440600204C0600204C06002054060020E4
:10401400540600205C0600205C0600206406002094
:10402400640600206C0600206C0600207406002044
:10403400740600207C0600207C06002084060020F4
:10404400840600208C0600208C06002094060020A4
:10405400940600209C0600209C060020A406002054
:10406400A4060020AC060020AC060020B406002004
:10407400B4060020BC060020BC060020C4060020B4
:10408400C4060020CC060020CC060020D406002064
:10409400D4060020DC060020DC060020E406002014
:1040A400E4060020EC060020EC060020F4060020C4
:1040B400F4060020FC060020FC0600200407002073
:1040C400040700200C0700200C0700201407002020
:1040D400140700201C0700201C07002024070020D0
:1040E400240700202C0700202C0700203407002080
:1040F400340700203C0700203C0700204407002030
:10410400440700204C0700204C07002054070020DF
:10411400540700205C0700205C070020640700208F
:10412400640700206C0700206C070020740700203F
:10413400740700207C0700207C07002084070020EF
:10414400840700208C0700208C070020940700209F
:10415400940700209C0700209C070020A40700204F
:10416400A4070020AC070020AC070020B4070020FF
:10417400B4070020BC070020BC070020C4070020AF
:10418400C4070020CC070020CC070020D40700205F
:10419400D4070020DC070020DC070020E40700200F
:1041A400E4070020EC070020EC070020F4070020BF
:1041B400F4070020FC070020FC070020040800206E
:1041C400040800200C0800200C080020140800201B
:1041D400140800201C0800201C08002024080020CB
:1041E400240800202C0800202C080020340800207B
:1041F400340800203C0800203C080020440800202B
:0C4204004408002000000200FFFFFFFF44
:0400000508001A4D88
:00000001FF
